:020000040800F2
:10000000600600206D0100087501000877010008F6
:10001000790100087B0100087D0100080000000054
:100020000000000000000000000000007F01000848
:10003000810100080000000083010008850100081C
:100040008701000887010008870100088701000870
:1000500087010008870100082902000887010008BD
:100060008701000887010008870100088701000850
:100070008701000887010008870100088701000840
:100080008701000887010008870100088701000830
:100090008701000887010008870100088701000820
:1000A0008701000887010008870100088701000810
:1000B0008701000887010008000000008701000890
:1000C0008701000800000000000000008701000810
:1000D0000000000087010008870100080000000000
:1000E00087010008870100088701000800F002F876
:1000F00000F02CF80AA090E8000C82448344AAF196
:100100000107DA4501D100F021F8AFF2090EBAE893
:100110000F0013F0010F18BFFB1A43F0010318473B
:10012000040500001405000000230024002500261B
:10013000103A28BF78C1FBD8520728BF30C148BF4A
:100140000B6070471FB51FBD10B510BD00F036F82D
:100150001146FFF7F7FF00F057FA00F054F803B428
:10016000FFF7F2FF03BC00F057F800000948804792
:1001700009480047FEE7FEE7FEE7FEE7FEE7FEE789
:10018000FEE7FEE7FEE7FEE704480549054A064BA1
:1001900070470000B1050008ED0000086000002075
:1001A0006006002060020020600200207047704757
:1001B0007047000000487047000000207546FFF7B8
:1001C000F9FFAE4605006946534620F00700854614
:1001D00018B020B5FFF7D8FFBDE820404FF000066B
:1001E0004FF000074FF000084FF0000BAC46ACE8B2
:1001F000C009ACE8C009ACE8C009ACE8C00921F00E
:1002000007018D46704710B50446AFF300802046C5
:10021000BDE81040FFF7A3BF01491820ABBEFEE7C1
:10022000260002007047000010B5012000F046F8DB
:10023000002808BF10BD40F60044C4F20104204667
:10024000702100F011F92046702100F00FF92046CE
:10025000702100F009F92046702100F007F92046CE
:10026000702100F001F9012000F004F8012000F0F5
:1002700001F810BD40F21441C4F20101086070475A
:1002800010B584B001200121012400F021F90020E3
:10029000002100F079F84FF40060ADF80C0002A8DE
:1002A00002948DF80E4000F019F80620C0F20010FC
:1002B000019001A800F0DCF804B010BD40F200414C
:1002C000C4F201010A6849690240084018BF0120D0
:1002D000002A18BF012210407047000081790029D0
:1002E00040F20041C4F201011FD002680B68934341
:1002F0000B604B6893434B60037943EA010CDCF8D5
:1003000000301A43CCF8002002688B6893438B605E
:10031000CB689343CB60407910280ED18868104396
:100320008860C8681043C86070470279006811434C
:100330000A6822EA00000860704708430168114318
:1003400001607047B0B582B00420012100F0C0F810
:100350000820012100F0BCF8702040F60004C1F232
:100360000340C4F2010401AD019004F58060294608
:1003700000F022F80120C2F6030001902046294631
:1003800000F01AF802B0B0BD10B50C22082402EA41
:10039000810201F0FC01C4F201044FF00F0C51F88E
:1003A00004E00CFA02F32EEA03030B510B599040C0
:1003B0001843085110BD00002DE9F041CA7802F041
:1003C0000F0CD30644BF8B784CEA030C09880B064C
:1003D00021D0056800234FF001084FF00F0E0026D2
:1003E00008E000BF282A08BF47610136082E03F144
:1003F00004030FD008FA06F70F42F6D00EFA03F402
:1004000025EA04040CFA03F5482A45EA0405E9D173
:100410000761EAE70560B1F5807F38BFBDE8F0818C
:10042000446800234FF4807E4FF00F08002607E059
:10043000282A08BF47610136082E03F1040310D0B3
:100440000EFA06F707EA0105BD42F4D108FA03F5F2
:10045000AC430CFA03F5482A44EA0504E8D10761E5
:10046000E9E74460BDE8F081416170470161704790
:1004700010B5C17800294EF20011CEF200011AD059
:100480004EF60C52CEF200021268072323EA122223
:100490000F23C2F1040C23FA02F24378847890F817
:1004A00000E003FA0CF322401A43120101EB0E03A1
:1004B00083F8002300E080310078012300F01F0260
:1004C00003FA02F2C0F3421041F8202010BD0000F0
:1004D000002941F21801C4F202010A680CBF22EAA5
:1004E000000010430860704780B500F001F880BD3F
:1004F00082B041F204000021C4F202000191009197
:1005000050F8041C41F4803140F8041C50F8041CDD
:1005100001F400310091019901310191009919B95B
:100520000199B1F5A06FF1D150F8041C890354BFB3
:100530000021012100910099012936D142F20001E8
:10054000C4F202010A6842F010020A600A6822F04E
:1005500003020A600A6842F002020A600168016050
:1005600001680160016841F480610160016821F463
:100570007C110160016841F4E811016050F8041C2D
:1005800041F0807140F8041C50F8041C8901FBD52F
:10059000016821F003010160016841F0020101607E
:1005A000016801F00C010829FAD102B0704700007F
:1005B00080B541F20000C4F202000168002241F05F
:1005C000010101604168CFF6FF02114041600168FE
:1005D0004FF6FF72CFF6F66211400160016821F418
:1005E00080210160416821F4FE0141604FF41F0148
:1005F0008160FFF779FF4EF60850CEF200004FF011
:100600000061016080BD0000FFF79CFEFFF738FE2F
:1006100040F60044C4F2010420467021FFF726FF93
:10062000FAE7000034060008000000206006000021
:040630002801000895
:040000050800016D81
:00000001FF
