:020000040800F2
:10000000600600206D0100087501000877010008F6
:10001000790100087B0100087D0100080000000054
:100020000000000000000000000000007F01000848
:10003000810100080000000083010008850100081C
:100040008701000887010008870100088701000870
:1000500087010008870100089D020008D9020008F6
:1000600015030008870100088701000887010008C0
:100070008701000887010008870100088701000840
:100080008701000887010008870100088701000830
:100090008701000887010008870100088701000820
:1000A0008701000887010008870100088701000810
:1000B0008701000887010008000000008701000890
:1000C0008701000800000000000000008701000810
:1000D0000000000087010008870100080000000000
:1000E00087010008870100088701000800F002F876
:1000F00000F02CF80AA090E8000C82448344AAF196
:100100000107DA4501D100F021F8AFF2090EBAE893
:100110000F0013F0010F18BFFB1A43F0010318473B
:100120008C0400009C04000000230024002500260D
:10013000103A28BF78C1FBD8520728BF30C148BF4A
:100140000B6070471FB51FBD10B510BD00F031F832
:100150001146FFF7F7FF00F0F9F900F04FF803B48C
:10016000FFF7F2FF03BC00F057F800000948804792
:1001700009480047FEE7FEE7FEE7FEE7FEE7FEE789
:10018000FEE7FEE7FEE7FEE704480549054A064BA1
:1001900070470000CD040008ED000008600000205A
:1001A0006006002060020020600200207047704757
:1001B0007047754600F02CF8AE4605006946534678
:1001C00020F00700854618B020B5FFF7DDFFBDE839
:1001D00020404FF000064FF000074FF000084FF0AE
:1001E000000BAC46ACE8C009ACE8C009ACE8C009FB
:1001F000ACE8C00921F007018D46704710B50446F0
:10020000AFF300802046BDE81040FFF7A8BF000014
:10021000004870470000002001491820ABBEFEE7EF
:10022000260002007047000041F20400C4F2020000
:1002300050F8041C41F4403140F8041C50F8041CF0
:100240008903FBD550F8041C41F4002140F8041C3C
:10025000016841F400310160016841F480310160BE
:10026000016841F400210160016841F090010160E2
:10027000016841F400510160016841F4806101604E
:1002800050F8041C41F0807140F8041C50F8041C24
:100290008901FBD54FF418014160704740F60C40CE
:1002A0004FF60801C4F20100CFF6FF714258D207A1
:1002B00008BF7047042202604FF4802202600822C7
:1002C00002604FF400220260102202604FF480129C
:1002D000026001224250704740F60C404FF6080180
:1002E000C4F20100CFF6FF714258920758BF704721
:1002F000102202604FF480120260082202604FF464
:1003000000220260042202604FF480220260022276
:100310004250704740F60C404FF60801C4F201000D
:10032000CFF6FF714258520758BF7047082202604B
:100330004FF40022026004224FF480230260036025
:10034000102303604FF48013036042507047000095
:1003500010B541F21800C4F20200016841F0010139
:100360000160062000F0DEF8072000F0DBF808202E
:1003700000F0D8F84FF6084040F20044CFF6FF7086
:10038000C4F20104002121504FF60C40CFF6FF705B
:1003900021504FF61040CFF6FF702150062000216B
:1003A00000F0CCF80720052100F0C8F80820032150
:1003B00000F0C4F8206840F007002060A06840F01A
:1003C0000700A06010BD000041F21800C4F2020056
:1003D000016841F004010160016841F00801016019
:1003E00040F60040C4F20100016841F4E0610160A0
:1003F000016841F4E0410160016841F4E0210160DD
:100400007047000080B500F001F880BD82B041F275
:1004100004000021C4F202000191009150F8041C74
:1004200041F4803140F8041C50F8041C01F4003100
:100430000091019901310191009919B90199B1F522
:10044000A06FF1D150F8041C890354BF0021012191
:1004500000910099012936D142F20001C4F2020153
:100460000A6842F010020A600A6822F003020A6079
:100470000A6842F002020A600168016001680160D6
:10048000016841F480610160016821F47C11016020
:10049000016841F4E811016050F8041C41F08071DA
:1004A00040F8041C50F8041C8901FBD5016821F0B8
:1004B00003010160016841F002010160016801F07F
:1004C0000C010829FAD102B07047000080B541F252
:1004D0000000C4F202000168002241F00101016045
:1004E0004168CFF6FF021140416001684FF6FF728C
:1004F000CFF6F66211400160016821F480210160AD
:10050000416821F4FE0141604FF41F018160FFF753
:1005100079FF4EF60850CEF200004FF00061016006
:1005200080BD000000F01F00012101FA00F04EF232
:100530000011CEF20001086070470000E422C0F212
:10054000E002090162F31F200170704740F60C447D
:10055000C4F20104FFF768FEFFF736FFFFF7F8FE6D
:100560004FF608014FF4E010CFF6FF7110224FF460
:1005700080134FF0040C4FF4802E4FF008084FF416
:10058000002601270AE000BFC4F800C0C4F800E05C
:10059000C4F80080266022602360675020606558A0
:1005A000ED07F1D122602360F8E70000BC050008E8
:0C05B00000000020600600002801000888
:040000050800016D81
:00000001FF
